{
  "contractName": "OptimismMarketplace",
  "abi": [
    {
      "inputs": [],
      "stateMutability": "nonpayable",
      "type": "constructor"
    },
    {
      "anonymous": false,
      "inputs": [
        {
          "indexed": false,
          "internalType": "address",
          "name": "nftContract",
          "type": "address"
        },
        {
          "indexed": false,
          "internalType": "uint256",
          "name": "tokenId",
          "type": "uint256"
        },
        {
          "indexed": false,
          "internalType": "address",
          "name": "seller",
          "type": "address"
        },
        {
          "indexed": false,
          "internalType": "address",
          "name": "owner",
          "type": "address"
        },
        {
          "indexed": false,
          "internalType": "uint256",
          "name": "price",
          "type": "uint256"
        }
      ],
      "name": "NFTListed",
      "type": "event"
    },
    {
      "anonymous": false,
      "inputs": [
        {
          "indexed": false,
          "internalType": "address",
          "name": "nftContract",
          "type": "address"
        },
        {
          "indexed": false,
          "internalType": "uint256",
          "name": "tokenId",
          "type": "uint256"
        },
        {
          "indexed": false,
          "internalType": "address",
          "name": "seller",
          "type": "address"
        },
        {
          "indexed": false,
          "internalType": "address",
          "name": "owner",
          "type": "address"
        },
        {
          "indexed": false,
          "internalType": "uint256",
          "name": "price",
          "type": "uint256"
        }
      ],
      "name": "NFTSold",
      "type": "event"
    },
    {
      "inputs": [],
      "name": "LISTING_FEE",
      "outputs": [
        {
          "internalType": "uint256",
          "name": "",
          "type": "uint256"
        }
      ],
      "stateMutability": "view",
      "type": "function",
      "constant": true
    },
    {
      "inputs": [
        {
          "internalType": "address",
          "name": "_nftContract",
          "type": "address"
        },
        {
          "internalType": "uint256",
          "name": "_tokenId",
          "type": "uint256"
        },
        {
          "internalType": "uint256",
          "name": "_price",
          "type": "uint256"
        }
      ],
      "name": "listNft",
      "outputs": [],
      "stateMutability": "payable",
      "type": "function",
      "payable": true
    },
    {
      "inputs": [
        {
          "internalType": "address",
          "name": "_nftContract",
          "type": "address"
        },
        {
          "internalType": "uint256",
          "name": "_tokenId",
          "type": "uint256"
        }
      ],
      "name": "buyNft",
      "outputs": [],
      "stateMutability": "payable",
      "type": "function",
      "payable": true
    },
    {
      "inputs": [
        {
          "internalType": "address",
          "name": "_nftContract",
          "type": "address"
        },
        {
          "internalType": "uint256",
          "name": "_tokenId",
          "type": "uint256"
        },
        {
          "internalType": "uint256",
          "name": "_price",
          "type": "uint256"
        }
      ],
      "name": "resellNft",
      "outputs": [],
      "stateMutability": "payable",
      "type": "function",
      "payable": true
    },
    {
      "inputs": [],
      "name": "getListingFee",
      "outputs": [
        {
          "internalType": "uint256",
          "name": "",
          "type": "uint256"
        }
      ],
      "stateMutability": "view",
      "type": "function",
      "constant": true
    },
    {
      "inputs": [],
      "name": "getListedNfts",
      "outputs": [
        {
          "components": [
            {
              "internalType": "address",
              "name": "nftContract",
              "type": "address"
            },
            {
              "internalType": "uint256",
              "name": "tokenId",
              "type": "uint256"
            },
            {
              "internalType": "address payable",
              "name": "seller",
              "type": "address"
            },
            {
              "internalType": "address payable",
              "name": "owner",
              "type": "address"
            },
            {
              "internalType": "uint256",
              "name": "price",
              "type": "uint256"
            },
            {
              "internalType": "bool",
              "name": "listed",
              "type": "bool"
            }
          ],
          "internalType": "struct OptimismMarketplace.NFT[]",
          "name": "",
          "type": "tuple[]"
        }
      ],
      "stateMutability": "view",
      "type": "function",
      "constant": true
    },
    {
      "inputs": [],
      "name": "getMyNfts",
      "outputs": [
        {
          "components": [
            {
              "internalType": "address",
              "name": "nftContract",
              "type": "address"
            },
            {
              "internalType": "uint256",
              "name": "tokenId",
              "type": "uint256"
            },
            {
              "internalType": "address payable",
              "name": "seller",
              "type": "address"
            },
            {
              "internalType": "address payable",
              "name": "owner",
              "type": "address"
            },
            {
              "internalType": "uint256",
              "name": "price",
              "type": "uint256"
            },
            {
              "internalType": "bool",
              "name": "listed",
              "type": "bool"
            }
          ],
          "internalType": "struct OptimismMarketplace.NFT[]",
          "name": "",
          "type": "tuple[]"
        }
      ],
      "stateMutability": "view",
      "type": "function",
      "constant": true
    },
    {
      "inputs": [],
      "name": "getMyListedNfts",
      "outputs": [
        {
          "components": [
            {
              "internalType": "address",
              "name": "nftContract",
              "type": "address"
            },
            {
              "internalType": "uint256",
              "name": "tokenId",
              "type": "uint256"
            },
            {
              "internalType": "address payable",
              "name": "seller",
              "type": "address"
            },
            {
              "internalType": "address payable",
              "name": "owner",
              "type": "address"
            },
            {
              "internalType": "uint256",
              "name": "price",
              "type": "uint256"
            },
            {
              "internalType": "bool",
              "name": "listed",
              "type": "bool"
            }
          ],
          "internalType": "struct OptimismMarketplace.NFT[]",
          "name": "",
          "type": "tuple[]"
        }
      ],
      "stateMutability": "view",
      "type": "function",
      "constant": true
    }
  ],
  "bytecode": "0x6080604052655af3107a400060035534801561001a57600080fd5b506001600055600480546001600160a01b03191633179055611083806100416000396000f3fe60806040526004361061007b5760003560e01c80634ddf4f8f1161004e5780634ddf4f8f146100f95780638d6cb3fb1461010c578063b8fe6abe14610121578063c922b17c1461013657600080fd5b8063047b07bf146100805780631f4cc4db146100ab5780632b86ae38146100c057806334f5b624146100e4575b600080fd5b34801561008c57600080fd5b50610095610149565b6040516100a29190610f63565b60405180910390f35b3480156100b757600080fd5b50610095610355565b3480156100cc57600080fd5b506100d660035481565b6040519081526020016100a2565b6100f76100f2366004610f31565b6105b3565b005b6100f7610107366004610f08565b6107de565b34801561011857600080fd5b50610095610a46565b34801561012d57600080fd5b506003546100d6565b6100f7610144366004610f31565b610bf7565b6060600061015660025490565b90506000805b828110156101b7573360056000610174846001610fed565b81526020810191909152604001600020600301546001600160a01b031614156101a557816101a18161101c565b9250505b806101af8161101c565b91505061015c565b5060008167ffffffffffffffff8111156101e157634e487b7160e01b600052604160045260246000fd5b60405190808252806020026020018201604052801561024157816020015b6040805160c08101825260008082526020808301829052928201819052606082018190526080820181905260a082015282526000199092019101816101ff5790505b5090506000805b8481101561034b573360056000610260846001610fed565b81526020810191909152604001600020600301546001600160a01b031614156103395760056000610292836001610fed565b81526020808201929092526040908101600020815160c08101835281546001600160a01b0390811682526001830154948201949094526002820154841692810192909252600381015490921660608201526004820154608082015260059091015460ff16151560a0820152835184908490811061031f57634e487b7160e01b600052603260045260246000fd5b602002602001018190525081806103359061101c565b9250505b806103438161101c565b915050610248565b5090949350505050565b6060600061036260025490565b90506000805b828110156103f1573360056000610380846001610fed565b81526020810191909152604001600020600201546001600160a01b03161480156103cc5750600560006103b4836001610fed565b815260208101919091526040016000206005015460ff165b156103df57816103db8161101c565b9250505b806103e98161101c565b915050610368565b5060008167ffffffffffffffff81111561041b57634e487b7160e01b600052604160045260246000fd5b60405190808252806020026020018201604052801561047b57816020015b6040805160c08101825260008082526020808301829052928201819052606082018190526080820181905260a082015282526000199092019101816104395790505b5090506000805b8481101561034b57336005600061049a846001610fed565b81526020810191909152604001600020600201546001600160a01b03161480156104e65750600560006104ce836001610fed565b815260208101919091526040016000206005015460ff165b156105a157600560006104fa836001610fed565b81526020808201929092526040908101600020815160c08101835281546001600160a01b0390811682526001830154948201949094526002820154841692810192909252600381015490921660608201526004820154608082015260059091015460ff16151560a0820152835184908490811061058757634e487b7160e01b600052603260045260246000fd5b6020026020010181905250818061059d9061101c565b9250505b806105ab8161101c565b915050610482565b6002600054141561060b5760405162461bcd60e51b815260206004820152601f60248201527f5265656e7472616e637947756172643a207265656e7472616e742063616c6c0060448201526064015b60405180910390fd5b60026000558061065d5760405162461bcd60e51b815260206004820152601c60248201527f5072696365206d757374206265206174206c65617374203120776569000000006044820152606401610602565b60035434146106ae5760405162461bcd60e51b815260206004820181905260248201527f4e6f7420656e6f75676820657468657220666f72206c697374696e67206665656044820152606401610602565b6040516323b872dd60e01b8152336004820152306024820152604481018390526001600160a01b038416906323b872dd90606401600060405180830381600087803b1580156106fc57600080fd5b505af1158015610710573d6000803e3d6000fd5b505050600083815260056020819052604090912060028101805473ffffffffffffffffffffffffffffffffffffffff19908116331790915560038201805490911630179055908101805460ff191660019081179091556004820184905590915061077990610e95565b604080516001600160a01b0386168152602081018590523391810191909152306060820152608081018390527fa0c6c0d02d86fdacecbaa5fdf5894bab204e31a778250474108540733a9b8d199060a0015b60405180910390a1505060016000555050565b600260005414156108315760405162461bcd60e51b815260206004820152601f60248201527f5265656e7472616e637947756172643a207265656e7472616e742063616c6c006044820152606401610602565b6002600090815581815260056020526040902060048101543410156108be5760405162461bcd60e51b815260206004820152602660248201527f4e6f7420656e6f75676820657468657220746f20636f7665722061736b696e6760448201527f20707269636500000000000000000000000000000000000000000000000000006064820152608401610602565b600281015460405133916001600160a01b0316903480156108fc02916000818181858888f193505050501580156108f9573d6000803e3d6000fd5b5060018201546040516323b872dd60e01b81523060048201526001600160a01b0383811660248301526044820192909252908516906323b872dd90606401600060405180830381600087803b15801561095157600080fd5b505af1158015610965573d6000803e3d6000fd5b50506004546003546040516001600160a01b03909216935080156108fc029250906000818181858888f193505050501580156109a5573d6000803e3d6000fd5b5060038201805473ffffffffffffffffffffffffffffffffffffffff19166001600160a01b03831617905560058201805460ff19169055600180548101905560018201546002830154604080516001600160a01b03808916825260208201949094529183169082015290821660608201523460808201527f16f1dbd97e6bf646d429ed186cce832f1f7fd9907814293b83181e9970ab7bd29060a0016107cb565b60606000610a5360025490565b90506000610a6060015490565b610a6a9083611005565b905060008167ffffffffffffffff811115610a9557634e487b7160e01b600052604160045260246000fd5b604051908082528060200260200182016040528015610af557816020015b6040805160c08101825260008082526020808301829052928201819052606082018190526080820181905260a08201528252600019909201910181610ab35790505b5090506000805b8481101561034b5760056000610b13836001610fed565b815260208101919091526040016000206005015460ff1615610be55760056000610b3e836001610fed565b81526020808201929092526040908101600020815160c08101835281546001600160a01b0390811682526001830154948201949094526002820154841692810192909252600381015490921660608201526004820154608082015260059091015460ff16151560a08201528351849084908110610bcb57634e487b7160e01b600052603260045260246000fd5b60200260200101819052508180610be19061101c565b9250505b80610bef8161101c565b915050610afc565b60026000541415610c4a5760405162461bcd60e51b815260206004820152601f60248201527f5265656e7472616e637947756172643a207265656e7472616e742063616c6c006044820152606401610602565b600260005580610c9c5760405162461bcd60e51b815260206004820152601c60248201527f5072696365206d757374206265206174206c65617374203120776569000000006044820152606401610602565b6003543414610ced5760405162461bcd60e51b815260206004820181905260248201527f4e6f7420656e6f75676820657468657220666f72206c697374696e67206665656044820152606401610602565b6040516323b872dd60e01b8152336004820152306024820152604481018390526001600160a01b038416906323b872dd90606401600060405180830381600087803b158015610d3b57600080fd5b505af1158015610d4f573d6000803e3d6000fd5b50505050610d61600280546001019055565b6040805160c0810182526001600160a01b0380861682526020808301868152338486018181523060608701818152608088018a8152600160a08a0181815260008e81526005998a90528c90209a518b54908b1673ffffffffffffffffffffffffffffffffffffffff19918216178c559751918b0191909155935160028a018054918a1691881691909117905590516003890180549190981695169490941790955591516004860155905193909101805493151560ff199094169390931790925591517fa0c6c0d02d86fdacecbaa5fdf5894bab204e31a778250474108540733a9b8d1992610e8392879287929087906001600160a01b039586168152602081019490945291841660408401529092166060820152608081019190915260a00190565b60405180910390a15050600160005550565b805480610ee45760405162461bcd60e51b815260206004820152601b60248201527f436f756e7465723a2064656372656d656e74206f766572666c6f7700000000006044820152606401610602565b600019019055565b80356001600160a01b0381168114610f0357600080fd5b919050565b60008060408385031215610f1a578182fd5b610f2383610eec565b946020939093013593505050565b600080600060608486031215610f45578081fd5b610f4e84610eec565b95602085013595506040909401359392505050565b602080825282518282018190526000919060409081850190868401855b82811015610fe057815180516001600160a01b039081168652878201518887015286820151811687870152606080830151909116908601526080808201519086015260a09081015115159085015260c09093019290850190600101610f80565b5091979650505050505050565b6000821982111561100057611000611037565b500190565b60008282101561101757611017611037565b500390565b600060001982141561103057611030611037565b5060010190565b634e487b7160e01b600052601160045260246000fdfea26469706673582212207de5c468fe2dc03a846bd6b96d697c999949e83c0394ab59dbb10464021d399164736f6c63430008040033",
  "immutableReferences": {},
  "source": "// SPDX-License-Identifier: MIT\npragma solidity ^0.8.0;\n\nimport \"@openzeppelin/contracts/utils/Counters.sol\";\nimport \"@openzeppelin/contracts/token/ERC721/ERC721.sol\";\nimport \"@openzeppelin/contracts/security/ReentrancyGuard.sol\";\n\ncontract OptimismMarketplace is ReentrancyGuard {\n  using Counters for Counters.Counter;\n  Counters.Counter private _nftsSold;\n  Counters.Counter private _nftCount;\n  uint256 public LISTING_FEE = 0.0001 ether;\n  address payable private _marketOwner;\n  mapping(uint256 => NFT) private _idToNFT;\n  struct NFT {\n    address nftContract;\n    uint256 tokenId;\n    address payable seller;\n    address payable owner;\n    uint256 price;\n    bool listed;\n  }\n  event NFTListed(\n    address nftContract,\n    uint256 tokenId,\n    address seller,\n    address owner,\n    uint256 price\n  );\n  event NFTSold(\n    address nftContract,\n    uint256 tokenId,\n    address seller,\n    address owner,\n    uint256 price\n  );\n\n  constructor() {\n    _marketOwner = payable(msg.sender);\n  }\n\n  // List the NFT on the marketplace\n  function listNft(address _nftContract, uint256 _tokenId, uint256 _price) public payable nonReentrant {\n    require(_price > 0, \"Price must be at least 1 wei\");\n    require(msg.value == LISTING_FEE, \"Not enough ether for listing fee\");\n\n    IERC721(_nftContract).transferFrom(msg.sender, address(this), _tokenId);\n\n    _nftCount.increment();\n\n    _idToNFT[_tokenId] = NFT(\n      _nftContract,\n      _tokenId,\n      payable(msg.sender),\n      payable(address(this)),\n      _price,\n      true\n    );\n\n    emit NFTListed(_nftContract, _tokenId, msg.sender, address(this), _price);\n  }\n\n  // Buy an NFT\n  function buyNft(address _nftContract, uint256 _tokenId) public payable nonReentrant {\n    NFT storage nft = _idToNFT[_tokenId];\n    require(msg.value >= nft.price, \"Not enough ether to cover asking price\");\n\n    address payable buyer = payable(msg.sender);\n    payable(nft.seller).transfer(msg.value);\n    IERC721(_nftContract).transferFrom(address(this), buyer, nft.tokenId);\n    _marketOwner.transfer(LISTING_FEE);\n    nft.owner = buyer;\n    nft.listed = false;\n\n    _nftsSold.increment();\n    emit NFTSold(_nftContract, nft.tokenId, nft.seller, buyer, msg.value);\n  }\n\n  // Resell an NFT purchased from the marketplace\n  function resellNft(address _nftContract, uint256 _tokenId, uint256 _price) public payable nonReentrant {\n    require(_price > 0, \"Price must be at least 1 wei\");\n    require(msg.value == LISTING_FEE, \"Not enough ether for listing fee\");\n\n    IERC721(_nftContract).transferFrom(msg.sender, address(this), _tokenId);\n\n    NFT storage nft = _idToNFT[_tokenId];\n    nft.seller = payable(msg.sender);\n    nft.owner = payable(address(this));\n    nft.listed = true;\n    nft.price = _price;\n\n    _nftsSold.decrement();\n    emit NFTListed(_nftContract, _tokenId, msg.sender, address(this), _price);\n  }\n\n  function getListingFee() public view returns (uint256) {\n    return LISTING_FEE;\n  }\n\n  function getListedNfts() public view returns (NFT[] memory) {\n    uint256 nftCount = _nftCount.current();\n    uint256 unsoldNftsCount = nftCount - _nftsSold.current();\n\n    NFT[] memory nfts = new NFT[](unsoldNftsCount);\n    uint nftsIndex = 0;\n    for (uint i = 0; i < nftCount; i++) {\n      if (_idToNFT[i + 1].listed) {\n        nfts[nftsIndex] = _idToNFT[i + 1];\n        nftsIndex++;\n      }\n    }\n    return nfts;\n  }\n\n  function getMyNfts() public view returns (NFT[] memory) {\n    uint nftCount = _nftCount.current();\n    uint myNftCount = 0;\n    for (uint i = 0; i < nftCount; i++) {\n      if (_idToNFT[i + 1].owner == msg.sender) {\n        myNftCount++;\n      }\n    }\n\n    NFT[] memory nfts = new NFT[](myNftCount);\n    uint nftsIndex = 0;\n    for (uint i = 0; i < nftCount; i++) {\n      if (_idToNFT[i + 1].owner == msg.sender) {\n        nfts[nftsIndex] = _idToNFT[i + 1];\n        nftsIndex++;\n      }\n    }\n    return nfts;\n  }\n\n  function getMyListedNfts() public view returns (NFT[] memory) {\n    uint nftCount = _nftCount.current();\n    uint myListedNftCount = 0;\n    for (uint i = 0; i < nftCount; i++) {\n      if (_idToNFT[i + 1].seller == msg.sender && _idToNFT[i + 1].listed) {\n        myListedNftCount++;\n      }\n    }\n\n    NFT[] memory nfts = new NFT[](myListedNftCount);\n    uint nftsIndex = 0;\n    for (uint i = 0; i < nftCount; i++) {\n      if (_idToNFT[i + 1].seller == msg.sender && _idToNFT[i + 1].listed) {\n        nfts[nftsIndex] = _idToNFT[i + 1];\n        nftsIndex++;\n      }\n    }\n    return nfts;\n  }\n}",
  "sourcePath": "/Users/emilylin/dev/demo/bridge-demo/truffle/contracts/optimism/OptimismMarketplace.sol",
  "compiler": {
    "name": "solc",
    "version": "0.8.4+commit.c7e474f2.Emscripten.clang"
  },
  "schemaVersion": "3.4.9",
  "updatedAt": "2022-10-10T17:06:23.294Z",
  "networkType": "ethereum",
  "devdoc": {
    "kind": "dev",
    "methods": {},
    "version": 1
  },
  "userdoc": {
    "kind": "user",
    "methods": {},
    "version": 1
  }
}