{
  "contractName": "OptimsimNFT",
  "abi": [
    {
      "inputs": [
        {
          "internalType": "address",
          "name": "_marketplaceContract",
          "type": "address"
        }
      ],
      "stateMutability": "nonpayable",
      "type": "constructor"
    },
    {
      "anonymous": false,
      "inputs": [
        {
          "indexed": true,
          "internalType": "address",
          "name": "owner",
          "type": "address"
        },
        {
          "indexed": true,
          "internalType": "address",
          "name": "approved",
          "type": "address"
        },
        {
          "indexed": true,
          "internalType": "uint256",
          "name": "tokenId",
          "type": "uint256"
        }
      ],
      "name": "Approval",
      "type": "event"
    },
    {
      "anonymous": false,
      "inputs": [
        {
          "indexed": true,
          "internalType": "address",
          "name": "owner",
          "type": "address"
        },
        {
          "indexed": true,
          "internalType": "address",
          "name": "operator",
          "type": "address"
        },
        {
          "indexed": false,
          "internalType": "bool",
          "name": "approved",
          "type": "bool"
        }
      ],
      "name": "ApprovalForAll",
      "type": "event"
    },
    {
      "anonymous": false,
      "inputs": [
        {
          "indexed": false,
          "internalType": "uint256",
          "name": "",
          "type": "uint256"
        }
      ],
      "name": "NFTMinted",
      "type": "event"
    },
    {
      "anonymous": false,
      "inputs": [
        {
          "indexed": true,
          "internalType": "address",
          "name": "from",
          "type": "address"
        },
        {
          "indexed": true,
          "internalType": "address",
          "name": "to",
          "type": "address"
        },
        {
          "indexed": true,
          "internalType": "uint256",
          "name": "tokenId",
          "type": "uint256"
        }
      ],
      "name": "Transfer",
      "type": "event"
    },
    {
      "inputs": [
        {
          "internalType": "address",
          "name": "to",
          "type": "address"
        },
        {
          "internalType": "uint256",
          "name": "tokenId",
          "type": "uint256"
        }
      ],
      "name": "approve",
      "outputs": [],
      "stateMutability": "nonpayable",
      "type": "function"
    },
    {
      "inputs": [
        {
          "internalType": "address",
          "name": "owner",
          "type": "address"
        }
      ],
      "name": "balanceOf",
      "outputs": [
        {
          "internalType": "uint256",
          "name": "",
          "type": "uint256"
        }
      ],
      "stateMutability": "view",
      "type": "function"
    },
    {
      "inputs": [
        {
          "internalType": "uint256",
          "name": "tokenId",
          "type": "uint256"
        }
      ],
      "name": "getApproved",
      "outputs": [
        {
          "internalType": "address",
          "name": "",
          "type": "address"
        }
      ],
      "stateMutability": "view",
      "type": "function"
    },
    {
      "inputs": [
        {
          "internalType": "address",
          "name": "owner",
          "type": "address"
        },
        {
          "internalType": "address",
          "name": "operator",
          "type": "address"
        }
      ],
      "name": "isApprovedForAll",
      "outputs": [
        {
          "internalType": "bool",
          "name": "",
          "type": "bool"
        }
      ],
      "stateMutability": "view",
      "type": "function"
    },
    {
      "inputs": [],
      "name": "name",
      "outputs": [
        {
          "internalType": "string",
          "name": "",
          "type": "string"
        }
      ],
      "stateMutability": "view",
      "type": "function"
    },
    {
      "inputs": [
        {
          "internalType": "uint256",
          "name": "tokenId",
          "type": "uint256"
        }
      ],
      "name": "ownerOf",
      "outputs": [
        {
          "internalType": "address",
          "name": "",
          "type": "address"
        }
      ],
      "stateMutability": "view",
      "type": "function"
    },
    {
      "inputs": [
        {
          "internalType": "address",
          "name": "from",
          "type": "address"
        },
        {
          "internalType": "address",
          "name": "to",
          "type": "address"
        },
        {
          "internalType": "uint256",
          "name": "tokenId",
          "type": "uint256"
        }
      ],
      "name": "safeTransferFrom",
      "outputs": [],
      "stateMutability": "nonpayable",
      "type": "function"
    },
    {
      "inputs": [
        {
          "internalType": "address",
          "name": "from",
          "type": "address"
        },
        {
          "internalType": "address",
          "name": "to",
          "type": "address"
        },
        {
          "internalType": "uint256",
          "name": "tokenId",
          "type": "uint256"
        },
        {
          "internalType": "bytes",
          "name": "data",
          "type": "bytes"
        }
      ],
      "name": "safeTransferFrom",
      "outputs": [],
      "stateMutability": "nonpayable",
      "type": "function"
    },
    {
      "inputs": [
        {
          "internalType": "address",
          "name": "operator",
          "type": "address"
        },
        {
          "internalType": "bool",
          "name": "approved",
          "type": "bool"
        }
      ],
      "name": "setApprovalForAll",
      "outputs": [],
      "stateMutability": "nonpayable",
      "type": "function"
    },
    {
      "inputs": [
        {
          "internalType": "bytes4",
          "name": "interfaceId",
          "type": "bytes4"
        }
      ],
      "name": "supportsInterface",
      "outputs": [
        {
          "internalType": "bool",
          "name": "",
          "type": "bool"
        }
      ],
      "stateMutability": "view",
      "type": "function"
    },
    {
      "inputs": [],
      "name": "symbol",
      "outputs": [
        {
          "internalType": "string",
          "name": "",
          "type": "string"
        }
      ],
      "stateMutability": "view",
      "type": "function"
    },
    {
      "inputs": [
        {
          "internalType": "uint256",
          "name": "tokenId",
          "type": "uint256"
        }
      ],
      "name": "tokenURI",
      "outputs": [
        {
          "internalType": "string",
          "name": "",
          "type": "string"
        }
      ],
      "stateMutability": "view",
      "type": "function"
    },
    {
      "inputs": [
        {
          "internalType": "address",
          "name": "from",
          "type": "address"
        },
        {
          "internalType": "address",
          "name": "to",
          "type": "address"
        },
        {
          "internalType": "uint256",
          "name": "tokenId",
          "type": "uint256"
        }
      ],
      "name": "transferFrom",
      "outputs": [],
      "stateMutability": "nonpayable",
      "type": "function"
    },
    {
      "inputs": [
        {
          "internalType": "string",
          "name": "_tokenURI",
          "type": "string"
        }
      ],
      "name": "mint",
      "outputs": [],
      "stateMutability": "nonpayable",
      "type": "function"
    }
  ],
  "bytecode": "0x60806040523480156200001157600080fd5b50604051620019623803806200196283398101604081905262000034916200017b565b604080518082018252601581527f426f726564205065747320596163687420436c756200000000000000000000006020808301918252835180850190945260048452634250594360e01b9084015281519192916200009591600091620000d5565b508051620000ab906001906020840190620000d5565b5050600880546001600160a01b0319166001600160a01b03939093169290921790915550620001e8565b828054620000e390620001ab565b90600052602060002090601f01602090048101928262000107576000855562000152565b82601f106200012257805160ff191683800117855562000152565b8280016001018555821562000152579182015b828111156200015257825182559160200191906001019062000135565b506200016092915062000164565b5090565b5b8082111562000160576000815560010162000165565b6000602082840312156200018d578081fd5b81516001600160a01b0381168114620001a4578182fd5b9392505050565b600181811c90821680620001c057607f821691505b60208210811415620001e257634e487b7160e01b600052602260045260246000fd5b50919050565b61176a80620001f86000396000f3fe608060405234801561001057600080fd5b50600436106100ea5760003560e01c806370a082311161008c578063b88d4fde11610066578063b88d4fde146101e1578063c87b56dd146101f4578063d85d3d2714610207578063e985e9c51461021a57600080fd5b806370a08231146101a557806395d89b41146101c6578063a22cb465146101ce57600080fd5b8063095ea7b3116100c8578063095ea7b31461015757806323b872dd1461016c57806342842e0e1461017f5780636352211e1461019257600080fd5b806301ffc9a7146100ef57806306fdde0314610117578063081812fc1461012c575b600080fd5b6101026100fd3660046114c3565b610256565b60405190151581526020015b60405180910390f35b61011f6102a8565b60405161010e91906115f0565b61013f61013a366004611541565b61033a565b6040516001600160a01b03909116815260200161010e565b61016a61016536600461149a565b610361565b005b61016a61017a3660046113ac565b61047c565b61016a61018d3660046113ac565b6104f4565b61013f6101a0366004611541565b61050f565b6101b86101b3366004611360565b610574565b60405190815260200161010e565b61011f61060e565b61016a6101dc366004611460565b61061d565b61016a6101ef3660046113e7565b61062c565b61011f610202366004611541565b6106ab565b61016a6102153660046114fb565b6107bc565b61010261022836600461137a565b6001600160a01b03918216600090815260056020908152604080832093909416825291909152205460ff1690565b60006001600160e01b031982166380ac58cd60e01b148061028757506001600160e01b03198216635b5e139f60e01b145b806102a257506301ffc9a760e01b6001600160e01b03198316145b92915050565b6060600080546102b790611672565b80601f01602080910402602001604051908101604052809291908181526020018280546102e390611672565b80156103305780601f1061030557610100808354040283529160200191610330565b820191906000526020600020905b81548152906001019060200180831161031357829003601f168201915b5050505050905090565b600061034582610839565b506000908152600460205260409020546001600160a01b031690565b600061036c8261050f565b9050806001600160a01b0316836001600160a01b031614156103df5760405162461bcd60e51b815260206004820152602160248201527f4552433732313a20617070726f76616c20746f2063757272656e74206f776e656044820152603960f91b60648201526084015b60405180910390fd5b336001600160a01b03821614806103fb57506103fb8133610228565b61046d5760405162461bcd60e51b815260206004820152603e60248201527f4552433732313a20617070726f76652063616c6c6572206973206e6f7420746f60448201527f6b656e206f776e6572206e6f7220617070726f76656420666f7220616c6c000060648201526084016103d6565b61047783836108a0565b505050565b610486338261091b565b6104e95760405162461bcd60e51b815260206004820152602e60248201527f4552433732313a2063616c6c6572206973206e6f7420746f6b656e206f776e6560448201526d1c881b9bdc88185c1c1c9bdd995960921b60648201526084016103d6565b610477838383610999565b6104778383836040518060200160405280600081525061062c565b6000818152600260205260408120546001600160a01b0316806102a25760405162461bcd60e51b815260206004820152601860248201527f4552433732313a20696e76616c696420746f6b656e204944000000000000000060448201526064016103d6565b60006001600160a01b0382166105f25760405162461bcd60e51b815260206004820152602960248201527f4552433732313a2061646472657373207a65726f206973206e6f74206120766160448201527f6c6964206f776e6572000000000000000000000000000000000000000000000060648201526084016103d6565b506001600160a01b031660009081526003602052604090205490565b6060600180546102b790611672565b610628338383610b5a565b5050565b610636338361091b565b6106995760405162461bcd60e51b815260206004820152602e60248201527f4552433732313a2063616c6c6572206973206e6f7420746f6b656e206f776e6560448201526d1c881b9bdc88185c1c1c9bdd995960921b60648201526084016103d6565b6106a584848484610c29565b50505050565b60606106b682610839565b600082815260066020526040812080546106cf90611672565b80601f01602080910402602001604051908101604052809291908181526020018280546106fb90611672565b80156107485780601f1061071d57610100808354040283529160200191610748565b820191906000526020600020905b81548152906001019060200180831161072b57829003601f168201915b50505050509050600061076660408051602081019091526000815290565b9050805160001415610779575092915050565b8151156107ab578082604051602001610793929190611585565b60405160208183030381529060405292505050919050565b6107b484610ca7565b949350505050565b6107ca600780546001019055565b60006107d560075490565b90506107e13382610d1b565b6107eb8183610d35565b600854610802906001600160a01b0316600161061d565b6040518181527fd9dc24857f317ed9abbbb42e920ede0104231eb1d3d70236a74887ffaf1598689060200160405180910390a15050565b6000818152600260205260409020546001600160a01b031661089d5760405162461bcd60e51b815260206004820152601860248201527f4552433732313a20696e76616c696420746f6b656e204944000000000000000060448201526064016103d6565b50565b6000818152600460205260409020805473ffffffffffffffffffffffffffffffffffffffff19166001600160a01b03841690811790915581906108e28261050f565b6001600160a01b03167f8c5be1e5ebec7d5bd14f71427d1e84f3dd0314c0f7b2291e5b200ac8c7c3b92560405160405180910390a45050565b6000806109278361050f565b9050806001600160a01b0316846001600160a01b0316148061096e57506001600160a01b0380821660009081526005602090815260408083209388168352929052205460ff165b806107b45750836001600160a01b03166109878461033a565b6001600160a01b031614949350505050565b826001600160a01b03166109ac8261050f565b6001600160a01b031614610a285760405162461bcd60e51b815260206004820152602560248201527f4552433732313a207472616e736665722066726f6d20696e636f72726563742060448201527f6f776e657200000000000000000000000000000000000000000000000000000060648201526084016103d6565b6001600160a01b038216610a8a5760405162461bcd60e51b8152602060048201526024808201527f4552433732313a207472616e7366657220746f20746865207a65726f206164646044820152637265737360e01b60648201526084016103d6565b610a956000826108a0565b6001600160a01b0383166000908152600360205260408120805460019290610abe90849061162f565b90915550506001600160a01b0382166000908152600360205260408120805460019290610aec908490611603565b9091555050600081815260026020526040808220805473ffffffffffffffffffffffffffffffffffffffff19166001600160a01b0386811691821790925591518493918716917fddf252ad1be2c89b69c2b068fc378daa952ba7f163c4a11628f55a4df523b3ef91a4505050565b816001600160a01b0316836001600160a01b03161415610bbc5760405162461bcd60e51b815260206004820152601960248201527f4552433732313a20617070726f766520746f2063616c6c65720000000000000060448201526064016103d6565b6001600160a01b03838116600081815260056020908152604080832094871680845294825291829020805460ff191686151590811790915591519182527f17307eab39ab6107e8899845ad3d59bd9653f200f220920489ca2b5937696c31910160405180910390a3505050565b610c34848484610999565b610c4084848484610dde565b6106a55760405162461bcd60e51b815260206004820152603260248201527f4552433732313a207472616e7366657220746f206e6f6e20455243373231526560448201527131b2b4bb32b91034b6b83632b6b2b73a32b960711b60648201526084016103d6565b6060610cb282610839565b6000610cc960408051602081019091526000815290565b90506000815111610ce95760405180602001604052806000815250610d14565b80610cf384610f36565b604051602001610d04929190611585565b6040516020818303038152906040525b9392505050565b610628828260405180602001604052806000815250611068565b6000828152600260205260409020546001600160a01b0316610dbf5760405162461bcd60e51b815260206004820152602e60248201527f45524337323155524953746f726167653a2055524920736574206f66206e6f6e60448201527f6578697374656e7420746f6b656e00000000000000000000000000000000000060648201526084016103d6565b6000828152600660209081526040909120825161047792840190611235565b60006001600160a01b0384163b15610f2b57604051630a85bd0160e11b81526001600160a01b0385169063150b7a0290610e229033908990889088906004016115b4565b602060405180830381600087803b158015610e3c57600080fd5b505af1925050508015610e6c575060408051601f3d908101601f19168201909252610e69918101906114df565b60015b610f11573d808015610e9a576040519150601f19603f3d011682016040523d82523d6000602084013e610e9f565b606091505b508051610f095760405162461bcd60e51b815260206004820152603260248201527f4552433732313a207472616e7366657220746f206e6f6e20455243373231526560448201527131b2b4bb32b91034b6b83632b6b2b73a32b960711b60648201526084016103d6565b805181602001fd5b6001600160e01b031916630a85bd0160e11b1490506107b4565b506001949350505050565b606081610f5a5750506040805180820190915260018152600360fc1b602082015290565b8160005b8115610f845780610f6e816116ad565b9150610f7d9050600a8361161b565b9150610f5e565b60008167ffffffffffffffff811115610fad57634e487b7160e01b600052604160045260246000fd5b6040519080825280601f01601f191660200182016040528015610fd7576020820181803683370190505b5090505b84156107b457610fec60018361162f565b9150610ff9600a866116c8565b611004906030611603565b60f81b81838151811061102757634e487b7160e01b600052603260045260246000fd5b60200101907effffffffffffffffffffffffffffffffffffffffffffffffffffffffffffff1916908160001a905350611061600a8661161b565b9450610fdb565b61107283836110e6565b61107f6000848484610dde565b6104775760405162461bcd60e51b815260206004820152603260248201527f4552433732313a207472616e7366657220746f206e6f6e20455243373231526560448201527131b2b4bb32b91034b6b83632b6b2b73a32b960711b60648201526084016103d6565b6001600160a01b03821661113c5760405162461bcd60e51b815260206004820181905260248201527f4552433732313a206d696e7420746f20746865207a65726f206164647265737360448201526064016103d6565b6000818152600260205260409020546001600160a01b0316156111a15760405162461bcd60e51b815260206004820152601c60248201527f4552433732313a20746f6b656e20616c7265616479206d696e7465640000000060448201526064016103d6565b6001600160a01b03821660009081526003602052604081208054600192906111ca908490611603565b9091555050600081815260026020526040808220805473ffffffffffffffffffffffffffffffffffffffff19166001600160a01b03861690811790915590518392907fddf252ad1be2c89b69c2b068fc378daa952ba7f163c4a11628f55a4df523b3ef908290a45050565b82805461124190611672565b90600052602060002090601f01602090048101928261126357600085556112a9565b82601f1061127c57805160ff19168380011785556112a9565b828001600101855582156112a9579182015b828111156112a957825182559160200191906001019061128e565b506112b59291506112b9565b5090565b5b808211156112b557600081556001016112ba565b600067ffffffffffffffff808411156112e9576112e9611708565b604051601f8501601f19908116603f0116810190828211818310171561131157611311611708565b8160405280935085815286868601111561132a57600080fd5b858560208301376000602087830101525050509392505050565b80356001600160a01b038116811461135b57600080fd5b919050565b600060208284031215611371578081fd5b610d1482611344565b6000806040838503121561138c578081fd5b61139583611344565b91506113a360208401611344565b90509250929050565b6000806000606084860312156113c0578081fd5b6113c984611344565b92506113d760208501611344565b9150604084013590509250925092565b600080600080608085870312156113fc578081fd5b61140585611344565b935061141360208601611344565b925060408501359150606085013567ffffffffffffffff811115611435578182fd5b8501601f81018713611445578182fd5b611454878235602084016112ce565b91505092959194509250565b60008060408385031215611472578182fd5b61147b83611344565b91506020830135801515811461148f578182fd5b809150509250929050565b600080604083850312156114ac578182fd5b6114b583611344565b946020939093013593505050565b6000602082840312156114d4578081fd5b8135610d148161171e565b6000602082840312156114f0578081fd5b8151610d148161171e565b60006020828403121561150c578081fd5b813567ffffffffffffffff811115611522578182fd5b8201601f81018413611532578182fd5b6107b4848235602084016112ce565b600060208284031215611552578081fd5b5035919050565b60008151808452611571816020860160208601611646565b601f01601f19169290920160200192915050565b60008351611597818460208801611646565b8351908301906115ab818360208801611646565b01949350505050565b60006001600160a01b038087168352808616602084015250836040830152608060608301526115e66080830184611559565b9695505050505050565b602081526000610d146020830184611559565b60008219821115611616576116166116dc565b500190565b60008261162a5761162a6116f2565b500490565b600082821015611641576116416116dc565b500390565b60005b83811015611661578181015183820152602001611649565b838111156106a55750506000910152565b600181811c9082168061168657607f821691505b602082108114156116a757634e487b7160e01b600052602260045260246000fd5b50919050565b60006000198214156116c1576116c16116dc565b5060010190565b6000826116d7576116d76116f2565b500690565b634e487b7160e01b600052601160045260246000fd5b634e487b7160e01b600052601260045260246000fd5b634e487b7160e01b600052604160045260246000fd5b6001600160e01b03198116811461089d57600080fdfea2646970667358221220efae92a7cd1a86860b517135b621f7a379997fc77c123c47696ea01adf80e33164736f6c63430008040033",
  "immutableReferences": {},
  "source": "// SPDX-License-Identifier: MIT\npragma solidity ^0.8.0;\n\nimport \"@openzeppelin/contracts/token/ERC721/ERC721.sol\";\nimport \"@openzeppelin/contracts/token/ERC721/extensions/ERC721URIStorage.sol\";\nimport \"@openzeppelin/contracts/utils/Counters.sol\";\n\ncontract OptimsimNFT is ERC721URIStorage {\n  using Counters for Counters.Counter;\n  Counters.Counter private _tokenIds;\n  address marketplaceContract;\n  event NFTMinted(uint256);\n\n  constructor(address _marketplaceContract) ERC721(\"Bored Pets Yacht Club\", \"BPYC\") {\n    marketplaceContract = _marketplaceContract;\n  }\n\n  function mint(string memory _tokenURI) public {\n    _tokenIds.increment();\n    uint256 newTokenId = _tokenIds.current();\n    _safeMint(msg.sender, newTokenId);\n    _setTokenURI(newTokenId, _tokenURI);\n    setApprovalForAll(marketplaceContract, true);\n    emit NFTMinted(newTokenId);\n  }\n}",
  "sourcePath": "/Users/emilylin/dev/demo/bridge-demo/truffle/contracts/optimism/OptimismNFT.sol",
  "compiler": {
    "name": "solc",
    "version": "0.8.4+commit.c7e474f2.Emscripten.clang"
  },
  "schemaVersion": "3.4.9",
  "updatedAt": "2022-10-10T16:57:15.584Z",
  "devdoc": {
    "kind": "dev",
    "methods": {
      "approve(address,uint256)": {
        "details": "See {IERC721-approve}."
      },
      "balanceOf(address)": {
        "details": "See {IERC721-balanceOf}."
      },
      "getApproved(uint256)": {
        "details": "See {IERC721-getApproved}."
      },
      "isApprovedForAll(address,address)": {
        "details": "See {IERC721-isApprovedForAll}."
      },
      "name()": {
        "details": "See {IERC721Metadata-name}."
      },
      "ownerOf(uint256)": {
        "details": "See {IERC721-ownerOf}."
      },
      "safeTransferFrom(address,address,uint256)": {
        "details": "See {IERC721-safeTransferFrom}."
      },
      "safeTransferFrom(address,address,uint256,bytes)": {
        "details": "See {IERC721-safeTransferFrom}."
      },
      "setApprovalForAll(address,bool)": {
        "details": "See {IERC721-setApprovalForAll}."
      },
      "supportsInterface(bytes4)": {
        "details": "See {IERC165-supportsInterface}."
      },
      "symbol()": {
        "details": "See {IERC721Metadata-symbol}."
      },
      "tokenURI(uint256)": {
        "details": "See {IERC721Metadata-tokenURI}."
      },
      "transferFrom(address,address,uint256)": {
        "details": "See {IERC721-transferFrom}."
      }
    },
    "version": 1
  },
  "userdoc": {
    "kind": "user",
    "methods": {},
    "version": 1
  }
}